{
  "contractName": "Delinked",
  "abi": [
    {
      "anonymous": false,
      "inputs": [
        {
          "indexed": false,
          "internalType": "uint256",
          "name": "id",
          "type": "uint256"
        },
        {
          "indexed": false,
          "internalType": "string",
          "name": "hash",
          "type": "string"
        },
        {
          "indexed": false,
          "internalType": "string",
          "name": "description",
          "type": "string"
        },
        {
          "indexed": false,
          "internalType": "uint256",
          "name": "tipAmount",
          "type": "uint256"
        },
        {
          "indexed": false,
          "internalType": "address",
          "name": "author",
          "type": "address"
        }
      ],
      "name": "ImageCreated",
      "type": "event"
    },
    {
      "anonymous": false,
      "inputs": [
        {
          "indexed": false,
          "internalType": "uint256",
          "name": "id",
          "type": "uint256"
        },
        {
          "indexed": false,
          "internalType": "string",
          "name": "hash",
          "type": "string"
        },
        {
          "indexed": false,
          "internalType": "string",
          "name": "description",
          "type": "string"
        },
        {
          "indexed": false,
          "internalType": "uint256",
          "name": "tipAmount",
          "type": "uint256"
        },
        {
          "indexed": false,
          "internalType": "address",
          "name": "author",
          "type": "address"
        }
      ],
      "name": "ImageTipped",
      "type": "event"
    },
    {
      "inputs": [],
      "name": "imageCount",
      "outputs": [
        {
          "internalType": "uint256",
          "name": "",
          "type": "uint256"
        }
      ],
      "stateMutability": "view",
      "type": "function",
      "constant": true
    },
    {
      "inputs": [
        {
          "internalType": "uint256",
          "name": "",
          "type": "uint256"
        }
      ],
      "name": "images",
      "outputs": [
        {
          "internalType": "uint256",
          "name": "id",
          "type": "uint256"
        },
        {
          "internalType": "string",
          "name": "hash",
          "type": "string"
        },
        {
          "internalType": "string",
          "name": "description",
          "type": "string"
        },
        {
          "internalType": "uint256",
          "name": "tipAmount",
          "type": "uint256"
        },
        {
          "internalType": "address",
          "name": "author",
          "type": "address"
        }
      ],
      "stateMutability": "view",
      "type": "function",
      "constant": true
    },
    {
      "inputs": [],
      "name": "name",
      "outputs": [
        {
          "internalType": "string",
          "name": "",
          "type": "string"
        }
      ],
      "stateMutability": "view",
      "type": "function",
      "constant": true
    },
    {
      "inputs": [
        {
          "internalType": "string",
          "name": "_imgHash",
          "type": "string"
        },
        {
          "internalType": "string",
          "name": "_description",
          "type": "string"
        }
      ],
      "name": "uploadImage",
      "outputs": [],
      "stateMutability": "nonpayable",
      "type": "function"
    },
    {
      "inputs": [
        {
          "internalType": "uint256",
          "name": "_id",
          "type": "uint256"
        }
      ],
      "name": "tipImageOwner",
      "outputs": [],
      "stateMutability": "payable",
      "type": "function",
      "payable": true
    },
    {
      "inputs": [],
      "name": "getImages",
      "outputs": [
        {
          "components": [
            {
              "internalType": "uint256",
              "name": "id",
              "type": "uint256"
            },
            {
              "internalType": "string",
              "name": "hash",
              "type": "string"
            },
            {
              "internalType": "string",
              "name": "description",
              "type": "string"
            },
            {
              "internalType": "uint256",
              "name": "tipAmount",
              "type": "uint256"
            },
            {
              "internalType": "address",
              "name": "author",
              "type": "address"
            }
          ],
          "internalType": "struct Delinked.Image[]",
          "name": "",
          "type": "tuple[]"
        }
      ],
      "stateMutability": "view",
      "type": "function",
      "constant": true
    }
  ],
  "bytecode": "0x60806040526040518060400160405280600881526020017f44656c696e6b6564000000000000000000000000000000000000000000000000815250600090816200004a9190620002de565b5060006001553480156200005d57600080fd5b50620003c5565b600081519050919050565b7f4e487b7100000000000000000000000000000000000000000000000000000000600052604160045260246000fd5b7f4e487b7100000000000000000000000000000000000000000000000000000000600052602260045260246000fd5b60006002820490506001821680620000e657607f821691505b602082108103620000fc57620000fb6200009e565b5b50919050565b60008190508160005260206000209050919050565b60006020601f8301049050919050565b600082821b905092915050565b600060088302620001667fffffffffffffffffffffffffffffffffffffffffffffffffffffffffffffffff8262000127565b62000172868362000127565b95508019841693508086168417925050509392505050565b6000819050919050565b6000819050919050565b6000620001bf620001b9620001b3846200018a565b62000194565b6200018a565b9050919050565b6000819050919050565b620001db836200019e565b620001f3620001ea82620001c6565b84845462000134565b825550505050565b600090565b6200020a620001fb565b62000217818484620001d0565b505050565b5b818110156200023f576200023360008262000200565b6001810190506200021d565b5050565b601f8211156200028e57620002588162000102565b620002638462000117565b8101602085101562000273578190505b6200028b620002828562000117565b8301826200021c565b50505b505050565b600082821c905092915050565b6000620002b36000198460080262000293565b1980831691505092915050565b6000620002ce8383620002a0565b9150826002028217905092915050565b620002e98262000064565b67ffffffffffffffff8111156200030557620003046200006f565b5b620003118254620000cd565b6200031e82828562000243565b600060209050601f83116001811462000356576000841562000341578287015190505b6200034d8582620002c0565b865550620003bd565b601f198416620003668662000102565b60005b82811015620003905784890151825560018201915060208501945060208101905062000369565b86831015620003b05784890151620003ac601f891682620002a0565b8355505b6001600288020188555050505b505050505050565b6116bd80620003d56000396000f3fe6080604052600436106100555760003560e01c806306fdde031461005a578063114983341461008557806384856482146100b05780638567ade8146100f157806392053b631461010d578063a91b831414610138575b600080fd5b34801561006657600080fd5b5061006f610161565b60405161007c9190610c14565b60405180910390f35b34801561009157600080fd5b5061009a6101ef565b6040516100a79190610e19565b60405180910390f35b3480156100bc57600080fd5b506100d760048036038101906100d29190610e7b565b610468565b6040516100e8959493929190610ec6565b60405180910390f35b61010b60048036038101906101069190610e7b565b6105ce565b005b34801561011957600080fd5b5061012261091d565b60405161012f9190610f27565b60405180910390f35b34801561014457600080fd5b5061015f600480360381019061015a9190611077565b610923565b005b6000805461016e9061111e565b80601f016020809104026020016040519081016040528092919081815260200182805461019a9061111e565b80156101e75780601f106101bc576101008083540402835291602001916101e7565b820191906000526020600020905b8154815290600101906020018083116101ca57829003601f168201915b505050505081565b6060600060038054905067ffffffffffffffff81111561021257610211610f4c565b5b60405190808252806020026020018201604052801561024b57816020015b610238610b3f565b8152602001906001900390816102305790505b50905060005b6003805490508110156104605760026000600383815481106102765761027561114f565b5b90600052602060002090600502016000015481526020019081526020016000206040518060a0016040529081600082015481526020016001820180546102bb9061111e565b80601f01602080910402602001604051908101604052809291908181526020018280546102e79061111e565b80156103345780601f1061030957610100808354040283529160200191610334565b820191906000526020600020905b81548152906001019060200180831161031757829003601f168201915b5050505050815260200160028201805461034d9061111e565b80601f01602080910402602001604051908101604052809291908181526020018280546103799061111e565b80156103c65780601f1061039b576101008083540402835291602001916103c6565b820191906000526020600020905b8154815290600101906020018083116103a957829003601f168201915b50505050508152602001600382015481526020016004820160009054906101000a900473ffffffffffffffffffffffffffffffffffffffff1673ffffffffffffffffffffffffffffffffffffffff1673ffffffffffffffffffffffffffffffffffffffff16815250508282815181106104425761044161114f565b5b60200260200101819052508080610458906111ad565b915050610251565b508091505090565b60026020528060005260406000206000915090508060000154908060010180546104919061111e565b80601f01602080910402602001604051908101604052809291908181526020018280546104bd9061111e565b801561050a5780601f106104df5761010080835404028352916020019161050a565b820191906000526020600020905b8154815290600101906020018083116104ed57829003601f168201915b50505050509080600201805461051f9061111e565b80601f016020809104026020016040519081016040528092919081815260200182805461054b9061111e565b80156105985780601f1061056d57610100808354040283529160200191610598565b820191906000526020600020905b81548152906001019060200180831161057b57829003601f168201915b5050505050908060030154908060040160009054906101000a900473ffffffffffffffffffffffffffffffffffffffff16905085565b6000811180156105e057506001548111155b6105e957600080fd5b6000600260008381526020019081526020016000206040518060a0016040529081600082015481526020016001820180546106239061111e565b80601f016020809104026020016040519081016040528092919081815260200182805461064f9061111e565b801561069c5780601f106106715761010080835404028352916020019161069c565b820191906000526020600020905b81548152906001019060200180831161067f57829003601f168201915b505050505081526020016002820180546106b59061111e565b80601f01602080910402602001604051908101604052809291908181526020018280546106e19061111e565b801561072e5780601f106107035761010080835404028352916020019161072e565b820191906000526020600020905b81548152906001019060200180831161071157829003601f168201915b50505050508152602001600382015481526020016004820160009054906101000a900473ffffffffffffffffffffffffffffffffffffffff1673ffffffffffffffffffffffffffffffffffffffff1673ffffffffffffffffffffffffffffffffffffffff1681525050905060008160800151905060008173ffffffffffffffffffffffffffffffffffffffff16346040516107c890611226565b60006040518083038185875af1925050503d8060008114610805576040519150601f19603f3d011682016040523d82523d6000602084013e61080a565b606091505b50509050801561091757348360600151610824919061123b565b8360600181815250508260026000868152602001908152602001600020600082015181600001556020820151816001019081610860919061141b565b506040820151816002019081610876919061141b565b506060820151816003015560808201518160040160006101000a81548173ffffffffffffffffffffffffffffffffffffffff021916908373ffffffffffffffffffffffffffffffffffffffff1602179055509050507f1be5317bca8d3f70dc1efe89958be71bff36cdca33fc00a6423e25eb2f1d492f848460200151856040015186606001518660405161090e959493929190610ec6565b60405180910390a15b50505050565b60015481565b600081511161093157600080fd5b600082511161093f57600080fd5b600073ffffffffffffffffffffffffffffffffffffffff163373ffffffffffffffffffffffffffffffffffffffff160361097857600080fd5b6001600081548092919061098b906111ad565b919050555060006002600060015481526020019081526020016000209050338160040160006101000a81548173ffffffffffffffffffffffffffffffffffffffff021916908373ffffffffffffffffffffffffffffffffffffffff160217905550600154816000018190555082816001019081610a08919061141b565b5081816002019081610a1a919061141b565b506000816003018190555060038190806001815401808255809150506001900390600052602060002090600502016000909190919091506000820154816000015560018201816001019081610a6f9190611503565b5060028201816002019081610a849190611503565b50600382015481600301556004820160009054906101000a900473ffffffffffffffffffffffffffffffffffffffff168160040160006101000a81548173ffffffffffffffffffffffffffffffffffffffff021916908373ffffffffffffffffffffffffffffffffffffffff16021790555050507fc1d8dfa99b3f84f95d3f0bc4a768addeb97b83b20aef7f9cb6729e126bafd2f96001548484600033604051610b32959493929190611626565b60405180910390a1505050565b6040518060a0016040528060008152602001606081526020016060815260200160008152602001600073ffffffffffffffffffffffffffffffffffffffff1681525090565b600081519050919050565b600082825260208201905092915050565b60005b83811015610bbe578082015181840152602081019050610ba3565b60008484015250505050565b6000601f19601f8301169050919050565b6000610be682610b84565b610bf08185610b8f565b9350610c00818560208601610ba0565b610c0981610bca565b840191505092915050565b60006020820190508181036000830152610c2e8184610bdb565b905092915050565b600081519050919050565b600082825260208201905092915050565b6000819050602082019050919050565b6000819050919050565b610c7581610c62565b82525050565b600082825260208201905092915050565b6000610c9782610b84565b610ca18185610c7b565b9350610cb1818560208601610ba0565b610cba81610bca565b840191505092915050565b600073ffffffffffffffffffffffffffffffffffffffff82169050919050565b6000610cf082610cc5565b9050919050565b610d0081610ce5565b82525050565b600060a083016000830151610d1e6000860182610c6c565b5060208301518482036020860152610d368282610c8c565b91505060408301518482036040860152610d508282610c8c565b9150506060830151610d656060860182610c6c565b506080830151610d786080860182610cf7565b508091505092915050565b6000610d8f8383610d06565b905092915050565b6000602082019050919050565b6000610daf82610c36565b610db98185610c41565b935083602082028501610dcb85610c52565b8060005b85811015610e075784840389528151610de88582610d83565b9450610df383610d97565b925060208a01995050600181019050610dcf565b50829750879550505050505092915050565b60006020820190508181036000830152610e338184610da4565b905092915050565b6000604051905090565b600080fd5b600080fd5b610e5881610c62565b8114610e6357600080fd5b50565b600081359050610e7581610e4f565b92915050565b600060208284031215610e9157610e90610e45565b5b6000610e9f84828501610e66565b91505092915050565b610eb181610c62565b82525050565b610ec081610ce5565b82525050565b600060a082019050610edb6000830188610ea8565b8181036020830152610eed8187610bdb565b90508181036040830152610f018186610bdb565b9050610f106060830185610ea8565b610f1d6080830184610eb7565b9695505050505050565b6000602082019050610f3c6000830184610ea8565b92915050565b600080fd5b600080fd5b7f4e487b7100000000000000000000000000000000000000000000000000000000600052604160045260246000fd5b610f8482610bca565b810181811067ffffffffffffffff82111715610fa357610fa2610f4c565b5b80604052505050565b6000610fb6610e3b565b9050610fc28282610f7b565b919050565b600067ffffffffffffffff821115610fe257610fe1610f4c565b5b610feb82610bca565b9050602081019050919050565b82818337600083830152505050565b600061101a61101584610fc7565b610fac565b90508281526020810184848401111561103657611035610f47565b5b611041848285610ff8565b509392505050565b600082601f83011261105e5761105d610f42565b5b813561106e848260208601611007565b91505092915050565b6000806040838503121561108e5761108d610e45565b5b600083013567ffffffffffffffff8111156110ac576110ab610e4a565b5b6110b885828601611049565b925050602083013567ffffffffffffffff8111156110d9576110d8610e4a565b5b6110e585828601611049565b9150509250929050565b7f4e487b7100000000000000000000000000000000000000000000000000000000600052602260045260246000fd5b6000600282049050600182168061113657607f821691505b602082108103611149576111486110ef565b5b50919050565b7f4e487b7100000000000000000000000000000000000000000000000000000000600052603260045260246000fd5b7f4e487b7100000000000000000000000000000000000000000000000000000000600052601160045260246000fd5b60006111b882610c62565b91507fffffffffffffffffffffffffffffffffffffffffffffffffffffffffffffffff82036111ea576111e961117e565b5b600182019050919050565b600081905092915050565b50565b60006112106000836111f5565b915061121b82611200565b600082019050919050565b600061123182611203565b9150819050919050565b600061124682610c62565b915061125183610c62565b92508282019050808211156112695761126861117e565b5b92915050565b60008190508160005260206000209050919050565b60006020601f8301049050919050565b600082821b905092915050565b6000600883026112d17fffffffffffffffffffffffffffffffffffffffffffffffffffffffffffffffff82611294565b6112db8683611294565b95508019841693508086168417925050509392505050565b6000819050919050565b600061131861131361130e84610c62565b6112f3565b610c62565b9050919050565b6000819050919050565b611332836112fd565b61134661133e8261131f565b8484546112a1565b825550505050565b600090565b61135b61134e565b611366818484611329565b505050565b5b8181101561138a5761137f600082611353565b60018101905061136c565b5050565b601f8211156113cf576113a08161126f565b6113a984611284565b810160208510156113b8578190505b6113cc6113c485611284565b83018261136b565b50505b505050565b600082821c905092915050565b60006113f2600019846008026113d4565b1980831691505092915050565b600061140b83836113e1565b9150826002028217905092915050565b61142482610b84565b67ffffffffffffffff81111561143d5761143c610f4c565b5b611447825461111e565b61145282828561138e565b600060209050601f8311600181146114855760008415611473578287015190505b61147d85826113ff565b8655506114e5565b601f1984166114938661126f565b60005b828110156114bb57848901518255600182019150602085019450602081019050611496565b868310156114d857848901516114d4601f8916826113e1565b8355505b6001600288020188555050505b505050505050565b6000815490506114fc8161111e565b9050919050565b8181036115115750506115e9565b61151a826114ed565b67ffffffffffffffff81111561153357611532610f4c565b5b61153d825461111e565b61154882828561138e565b6000601f8311600181146115775760008415611565578287015490505b61156f85826113ff565b8655506115e2565b601f1984166115858761126f565b96506115908661126f565b60005b828110156115b857848901548255600182019150600185019450602081019050611593565b868310156115d557848901546115d1601f8916826113e1565b8355505b6001600288020188555050505b5050505050505b565b6000819050919050565b600061161061160b611606846115eb565b6112f3565b610c62565b9050919050565b611620816115f5565b82525050565b600060a08201905061163b6000830188610ea8565b818103602083015261164d8187610bdb565b905081810360408301526116618186610bdb565b90506116706060830185611617565b61167d6080830184610eb7565b969550505050505056fea2646970667358221220ce8489060d2a304685a271d977fd16b55e15318086dad17834ae1b1df5eba8b264736f6c63430008130033",
  "immutableReferences": {},
  "source": "// SPDX-License-Identifier: MIT\r\npragma solidity >=0.4.22 <0.9.0;\r\n\r\ncontract Delinked {\r\n    string public name = \"Delinked\";\r\n\r\n    //store image\r\n    uint public imageCount = 0;\r\n    mapping(uint => Image) public images;\r\n\r\n    struct Image {\r\n        uint id;\r\n        string hash;\r\n        string description;\r\n        uint tipAmount;\r\n        address author;\r\n    }\r\n\r\n    event ImageCreated(\r\n        uint id,\r\n        string hash,\r\n        string description,\r\n        uint tipAmount,\r\n        address author\r\n    );\r\n\r\n    event ImageTipped(\r\n        uint id,\r\n        string hash,\r\n        string description,\r\n        uint tipAmount,\r\n        address author\r\n    );\r\n\r\n    Image[] allImages;\r\n\r\n    // Create Images\r\n    function uploadImage(\r\n        string memory _imgHash,\r\n        string memory _description\r\n    ) public {\r\n        require(bytes(_description).length > 0);\r\n        require(bytes(_imgHash).length > 0);\r\n        require(msg.sender != address(0x0));\r\n\r\n        // Increment image id\r\n        imageCount++;\r\n\r\n        // Add Image to contract\r\n        Image storage image = images[imageCount];\r\n        // image = Image(imageCount, _imgHash, _description, 0, msg.sender);\r\n        image.author = msg.sender;\r\n        image.id = imageCount;\r\n        image.hash = _imgHash;\r\n        image.description = _description;\r\n        image.tipAmount = 0;\r\n\r\n        allImages.push(image);\r\n\r\n        //trigger event\r\n        emit ImageCreated(imageCount, _imgHash, _description, 0, msg.sender);\r\n    }\r\n\r\n    //tip image\r\n    function tipImageOwner(uint _id) public payable {\r\n        //id is valid\r\n        require(_id > 0 && _id <= imageCount);\r\n\r\n        //fetch the image\r\n        Image memory _image = images[_id];\r\n\r\n        //fetch author\r\n        address _author = _image.author;\r\n\r\n        //pay author\r\n        // address(_author).transfer(msg.value);\r\n        //\r\n        (bool sent, ) = payable(_author).call{value: msg.value}(\"\");\r\n        if (sent) {\r\n            //update tip amount\r\n            _image.tipAmount = _image.tipAmount + msg.value;\r\n            images[_id] = _image;\r\n\r\n            emit ImageTipped(\r\n                _id,\r\n                _image.hash,\r\n                _image.description,\r\n                _image.tipAmount,\r\n                _author\r\n            );\r\n        }\r\n    }\r\n\r\n    // get Images\r\n    function getImages() public view returns (Image[] memory) {\r\n        Image[] memory imgs = new Image[](allImages.length);\r\n\r\n        for (uint256 i = 0; i < allImages.length; i++) {\r\n            imgs[i] = images[allImages[i].id];\r\n        }\r\n        return imgs;\r\n    }\r\n}\r\n",
  "sourcePath": "C:\\Users\\SHAMIL-PC\\Desktop\\DelinkedIn\\contracts\\Delinked.sol",
  "compiler": {
    "name": "solc",
    "version": "0.8.19+commit.7dd6d404.Emscripten.clang"
  },
  "schemaVersion": "3.4.13",
  "updatedAt": "2023-05-05T12:17:07.115Z",
  "networkType": "ethereum",
  "devdoc": {
    "kind": "dev",
    "methods": {},
    "version": 1
  },
  "userdoc": {
    "kind": "user",
    "methods": {},
    "version": 1
  }
}